{
  "_format": "hh-sol-artifact-1",
  "contractName": "WavePortal",
  "sourceName": "contracts/WavePortal.sol",
  "abi": [
    {
      "inputs": [],
      "stateMutability": "nonpayable",
      "type": "constructor"
    },
    {
      "inputs": [
        {
          "internalType": "address",
          "name": "userAddress",
          "type": "address"
        }
      ],
      "name": "getNumberOfWavesByGee",
      "outputs": [
        {
          "internalType": "uint256",
          "name": "",
          "type": "uint256"
        }
      ],
      "stateMutability": "view",
      "type": "function"
    },
    {
      "inputs": [],
      "name": "getTotalWaves",
      "outputs": [
        {
          "internalType": "uint256",
          "name": "",
          "type": "uint256"
        }
      ],
      "stateMutability": "view",
      "type": "function"
    },
    {
      "inputs": [
        {
          "internalType": "address",
          "name": "userAddress",
          "type": "address"
        }
      ],
      "name": "wave",
      "outputs": [],
      "stateMutability": "nonpayable",
      "type": "function"
    }
  ],
  "bytecode": "0x608060405234801561001057600080fd5b5061003c6040518060600160405280603681526020016109756036913961004160201b6102761760201c565b6101c4565b6100dd816040516024016100559190610142565b6040516020818303038152906040527f41304fac000000000000000000000000000000000000000000000000000000007bffffffffffffffffffffffffffffffffffffffffffffffffffffffff19166020820180517bffffffffffffffffffffffffffffffffffffffffffffffffffffffff83818316178352505050506100e060201b60201c565b50565b60008151905060006a636f6e736f6c652e6c6f679050602083016000808483855afa5050505050565b600061011482610164565b61011e818561016f565b935061012e818560208601610180565b610137816101b3565b840191505092915050565b6000602082019050818103600083015261015c8184610109565b905092915050565b600081519050919050565b600082825260208201905092915050565b60005b8381101561019e578082015181840152602081019050610183565b838111156101ad576000848401525b50505050565b6000601f19601f8301169050919050565b6107a2806101d36000396000f3fe608060405234801561001057600080fd5b50600436106100415760003560e01c806328b9d006146100465780639a2cdc0814610062578063a301536f14610080575b600080fd5b610060600480360381019061005b9190610485565b6100b0565b005b61006a610161565b60405161007791906105ca565b60405180910390f35b61009a60048036038101906100959190610485565b6101ac565b6040516100a791906105ca565b60405180910390f35b60018060008373ffffffffffffffffffffffffffffffffffffffff1673ffffffffffffffffffffffffffffffffffffffff16815260200190815260200160002060008282546100ff9190610601565b9250508190555060016000808282546101189190610601565b9250508190555061015e6040518060400160405280600d81526020017f25732068617320776176656421000000000000000000000000000000000000008152503361030f565b50565b60006101a46040518060400160405280601781526020017f5765206861766520256420746f74616c207761766573210000000000000000008152506000546103ab565b600054905090565b600080600160008473ffffffffffffffffffffffffffffffffffffffff1673ffffffffffffffffffffffffffffffffffffffff168152602001908152602001600020541161022f576040517f08c379a0000000000000000000000000000000000000000000000000000000008152600401610226906105aa565b60405180910390fd5b600160008373ffffffffffffffffffffffffffffffffffffffff1673ffffffffffffffffffffffffffffffffffffffff168152602001908152602001600020549050919050565b61030c8160405160240161028a9190610528565b6040516020818303038152906040527f41304fac000000000000000000000000000000000000000000000000000000007bffffffffffffffffffffffffffffffffffffffffffffffffffffffff19166020820180517bffffffffffffffffffffffffffffffffffffffffffffffffffffffff8381831617835250505050610447565b50565b6103a7828260405160240161032592919061054a565b6040516020818303038152906040527f319af333000000000000000000000000000000000000000000000000000000007bffffffffffffffffffffffffffffffffffffffffffffffffffffffff19166020820180517bffffffffffffffffffffffffffffffffffffffffffffffffffffffff8381831617835250505050610447565b5050565b61044382826040516024016103c192919061057a565b6040516020818303038152906040527f9710a9d0000000000000000000000000000000000000000000000000000000007bffffffffffffffffffffffffffffffffffffffffffffffffffffffff19166020820180517bffffffffffffffffffffffffffffffffffffffffffffffffffffffff8381831617835250505050610447565b5050565b60008151905060006a636f6e736f6c652e6c6f679050602083016000808483855afa5050505050565b60008135905061047f81610755565b92915050565b60006020828403121561049757600080fd5b60006104a584828501610470565b91505092915050565b6104b781610657565b82525050565b60006104c8826105e5565b6104d281856105f0565b93506104e2818560208601610693565b6104eb816106f5565b840191505092915050565b60006105036031836105f0565b915061050e82610706565b604082019050919050565b61052281610689565b82525050565b6000602082019050818103600083015261054281846104bd565b905092915050565b6000604082019050818103600083015261056481856104bd565b905061057360208301846104ae565b9392505050565b6000604082019050818103600083015261059481856104bd565b90506105a36020830184610519565b9392505050565b600060208201905081810360008301526105c3816104f6565b9050919050565b60006020820190506105df6000830184610519565b92915050565b600081519050919050565b600082825260208201905092915050565b600061060c82610689565b915061061783610689565b9250827fffffffffffffffffffffffffffffffffffffffffffffffffffffffffffffffff0382111561064c5761064b6106c6565b5b828201905092915050565b600061066282610669565b9050919050565b600073ffffffffffffffffffffffffffffffffffffffff82169050919050565b6000819050919050565b60005b838110156106b1578082015181840152602081019050610696565b838111156106c0576000848401525b50505050565b7f4e487b7100000000000000000000000000000000000000000000000000000000600052601160045260246000fd5b6000601f19601f8301169050919050565b7f596f75206e657665722077617665206d652062652074686174206f6f6f2c207560008201527f206e6f2074727920617420616c6c212121000000000000000000000000000000602082015250565b61075e81610657565b811461076957600080fd5b5056fea2646970667358221220ae3dc52e3b8aef6f1013369d8ba9077548a384ac298bed987780e2fb25bfcf0064736f6c634300080400334d79206765657a2c20796f7572206765652069732072756e6e696e6720736f6d6520736d617274207374756666732068657265212121",
  "linkReferences": {},
  "deployedLinkReferences": {}
}