{
  "_format": "hh-sol-artifact-1",
  "contractName": "WavePortal",
  "sourceName": "contracts/WavePortal.sol",
  "abi": [
    {
      "inputs": [],
      "stateMutability": "nonpayable",
      "type": "constructor"
    },
    {
      "anonymous": false,
      "inputs": [
        {
          "indexed": true,
          "internalType": "address",
          "name": "from",
          "type": "address"
        },
        {
          "indexed": false,
          "internalType": "uint256",
          "name": "timestamp",
          "type": "uint256"
        },
        {
          "indexed": false,
          "internalType": "string",
          "name": "message",
          "type": "string"
        }
      ],
      "name": "NewWave",
      "type": "event"
    },
    {
      "inputs": [],
      "name": "getAllWaves",
      "outputs": [
        {
          "components": [
            {
              "internalType": "address",
              "name": "waver",
              "type": "address"
            },
            {
              "internalType": "string",
              "name": "message",
              "type": "string"
            },
            {
              "internalType": "uint256",
              "name": "timestamp",
              "type": "uint256"
            }
          ],
          "internalType": "struct WavePortal.Wave[]",
          "name": "",
          "type": "tuple[]"
        }
      ],
      "stateMutability": "view",
      "type": "function"
    },
    {
      "inputs": [
        {
          "internalType": "address",
          "name": "userAddress",
          "type": "address"
        }
      ],
      "name": "getNumberOfWavesByGee",
      "outputs": [
        {
          "internalType": "uint256",
          "name": "",
          "type": "uint256"
        }
      ],
      "stateMutability": "view",
      "type": "function"
    },
    {
      "inputs": [],
      "name": "getTotalWaves",
      "outputs": [
        {
          "internalType": "uint256",
          "name": "",
          "type": "uint256"
        }
      ],
      "stateMutability": "view",
      "type": "function"
    },
    {
      "inputs": [
        {
          "internalType": "address",
          "name": "userAddress",
          "type": "address"
        },
        {
          "internalType": "string",
          "name": "_message",
          "type": "string"
        }
      ],
      "name": "wave",
      "outputs": [],
      "stateMutability": "nonpayable",
      "type": "function"
    }
  ],
  "bytecode": "0x60806040523480156200001157600080fd5b506200005d6040518060400160405280601981526020017f4920414d20534d41525420434f4e54524143542e20504f472e00000000000000815250620000de60201b6200058e1760201c565b6200008c6040518060600160405280603681526020016200155160369139620000de60201b6200058e1760201c565b620000d8336040518060400160405280600a81526020017f6d73672e73656e646572000000000000000000000000000000000000000000008152506200018160201b620006271760201c565b62000391565b6200017e81604051602401620000f59190620002d6565b6040516020818303038152906040527f41304fac000000000000000000000000000000000000000000000000000000007bffffffffffffffffffffffffffffffffffffffffffffffffffffffff19166020820180517bffffffffffffffffffffffffffffffffffffffffffffffffffffffff83818316178352505050506200022760201b60201c565b50565b6200022382826040516024016200019a929190620002a2565b6040516020818303038152906040527f759f86bb000000000000000000000000000000000000000000000000000000007bffffffffffffffffffffffffffffffffffffffffffffffffffffffff19166020820180517bffffffffffffffffffffffffffffffffffffffffffffffffffffffff83818316178352505050506200022760201b60201c565b5050565b60008151905060006a636f6e736f6c652e6c6f679050602083016000808483855afa5050505050565b6200025b8162000316565b82525050565b60006200026e82620002fa565b6200027a818562000305565b93506200028c8185602086016200034a565b620002978162000380565b840191505092915050565b6000604082019050620002b9600083018562000250565b8181036020830152620002cd818462000261565b90509392505050565b60006020820190508181036000830152620002f2818462000261565b905092915050565b600081519050919050565b600082825260208201905092915050565b600062000323826200032a565b9050919050565b600073ffffffffffffffffffffffffffffffffffffffff82169050919050565b60005b838110156200036a5780820151818401526020810190506200034d565b838111156200037a576000848401525b50505050565b6000601f19601f8301169050919050565b6111b080620003a16000396000f3fe608060405234801561001057600080fd5b506004361061004c5760003560e01c806346bb6469146100515780639a2cdc081461006d578063a301536f1461008b578063bd43a908146100bb575b600080fd5b61006b60048036038101906100669190610aae565b6100d9565b005b610075610328565b6040516100829190610e38565b60405180910390f35b6100a560048036038101906100a09190610a85565b610373565b6040516100b29190610e38565b60405180910390f35b6100c361043d565b6040516100d09190610cdc565b60405180910390f35b60018060008473ffffffffffffffffffffffffffffffffffffffff1673ffffffffffffffffffffffffffffffffffffffff16815260200190815260200160002060008282546101289190610f3f565b9250508190555060016000808282546101419190610f3f565b925050819055506101886040518060400160405280601681526020017f257320776176656420772f206d6573736167652025730000000000000000000081525033836106c3565b6101c76040518060400160405280600d81526020017f257320686173207761766564210000000000000000000000000000000000000081525033610762565b6102086040518060400160405280600881526020017f25732025732025730000000000000000000000000000000000000000000000008152503383426107fe565b600260405180606001604052803373ffffffffffffffffffffffffffffffffffffffff16815260200183815260200142815250908060018154018082558091505060019003906000526020600020906003020160009091909190915060008201518160000160006101000a81548173ffffffffffffffffffffffffffffffffffffffff021916908373ffffffffffffffffffffffffffffffffffffffff16021790555060208201518160010190805190602001906102c7929190610965565b506040820151816002015550503373ffffffffffffffffffffffffffffffffffffffff167f5f7e16dc676677766a70e9c5628aa6c54ddb8b6e5188e2ae1e1f17f1ffbea716428360405161031c929190610e53565b60405180910390a25050565b600061036b6040518060400160405280601781526020017f5765206861766520256420746f74616c207761766573210000000000000000008152506000546108a0565b600054905090565b600080600160008473ffffffffffffffffffffffffffffffffffffffff1673ffffffffffffffffffffffffffffffffffffffff16815260200190815260200160002054116103f6576040517f08c379a00000000000000000000000000000000000000000000000000000000081526004016103ed90610e18565b60405180910390fd5b600160008373ffffffffffffffffffffffffffffffffffffffff1673ffffffffffffffffffffffffffffffffffffffff168152602001908152602001600020549050919050565b60606002805480602002602001604051908101604052809291908181526020016000905b8282101561058557838290600052602060002090600302016040518060600160405290816000820160009054906101000a900473ffffffffffffffffffffffffffffffffffffffff1673ffffffffffffffffffffffffffffffffffffffff1673ffffffffffffffffffffffffffffffffffffffff1681526020016001820180546104ea90611013565b80601f016020809104026020016040519081016040528092919081815260200182805461051690611013565b80156105635780601f1061053857610100808354040283529160200191610563565b820191906000526020600020905b81548152906001019060200180831161054657829003601f168201915b5050505050815260200160028201548152505081526020019060010190610461565b50505050905090565b610624816040516024016105a29190610cfe565b6040516020818303038152906040527f41304fac000000000000000000000000000000000000000000000000000000007bffffffffffffffffffffffffffffffffffffffffffffffffffffffff19166020820180517bffffffffffffffffffffffffffffffffffffffffffffffffffffffff838183161783525050505061093c565b50565b6106bf828260405160240161063d929190610cac565b6040516020818303038152906040527f759f86bb000000000000000000000000000000000000000000000000000000007bffffffffffffffffffffffffffffffffffffffffffffffffffffffff19166020820180517bffffffffffffffffffffffffffffffffffffffffffffffffffffffff838183161783525050505061093c565b5050565b61075d8383836040516024016106db93929190610d50565b6040516020818303038152906040527fe0e9ad4f000000000000000000000000000000000000000000000000000000007bffffffffffffffffffffffffffffffffffffffffffffffffffffffff19166020820180517bffffffffffffffffffffffffffffffffffffffffffffffffffffffff838183161783525050505061093c565b505050565b6107fa8282604051602401610778929190610d20565b6040516020818303038152906040527f319af333000000000000000000000000000000000000000000000000000000007bffffffffffffffffffffffffffffffffffffffffffffffffffffffff19166020820180517bffffffffffffffffffffffffffffffffffffffffffffffffffffffff838183161783525050505061093c565b5050565b61089a848484846040516024016108189493929190610d95565b6040516020818303038152906040527f8f624be9000000000000000000000000000000000000000000000000000000007bffffffffffffffffffffffffffffffffffffffffffffffffffffffff19166020820180517bffffffffffffffffffffffffffffffffffffffffffffffffffffffff838183161783525050505061093c565b50505050565b61093882826040516024016108b6929190610de8565b6040516020818303038152906040527f9710a9d0000000000000000000000000000000000000000000000000000000007bffffffffffffffffffffffffffffffffffffffffffffffffffffffff19166020820180517bffffffffffffffffffffffffffffffffffffffffffffffffffffffff838183161783525050505061093c565b5050565b60008151905060006a636f6e736f6c652e6c6f679050602083016000808483855afa5050505050565b82805461097190611013565b90600052602060002090601f01602090048101928261099357600085556109da565b82601f106109ac57805160ff19168380011785556109da565b828001600101855582156109da579182015b828111156109d95782518255916020019190600101906109be565b5b5090506109e791906109eb565b5090565b5b80821115610a045760008160009055506001016109ec565b5090565b6000610a1b610a1684610ea8565b610e83565b905082815260208101848484011115610a3357600080fd5b610a3e848285610fd1565b509392505050565b600081359050610a5581611163565b92915050565b600082601f830112610a6c57600080fd5b8135610a7c848260208601610a08565b91505092915050565b600060208284031215610a9757600080fd5b6000610aa584828501610a46565b91505092915050565b60008060408385031215610ac157600080fd5b6000610acf85828601610a46565b925050602083013567ffffffffffffffff811115610aec57600080fd5b610af885828601610a5b565b9150509250929050565b6000610b0e8383610c3e565b905092915050565b610b1f81610f95565b82525050565b610b2e81610f95565b82525050565b6000610b3f82610ee9565b610b498185610f0c565b935083602082028501610b5b85610ed9565b8060005b85811015610b975784840389528151610b788582610b02565b9450610b8383610eff565b925060208a01995050600181019050610b5f565b50829750879550505050505092915050565b6000610bb482610ef4565b610bbe8185610f1d565b9350610bce818560208601610fe0565b610bd781611103565b840191505092915050565b6000610bed82610ef4565b610bf78185610f2e565b9350610c07818560208601610fe0565b610c1081611103565b840191505092915050565b6000610c28603183610f2e565b9150610c3382611114565b604082019050919050565b6000606083016000830151610c566000860182610b16565b5060208301518482036020860152610c6e8282610ba9565b9150506040830151610c836040860182610c8e565b508091505092915050565b610c9781610fc7565b82525050565b610ca681610fc7565b82525050565b6000604082019050610cc16000830185610b25565b8181036020830152610cd38184610be2565b90509392505050565b60006020820190508181036000830152610cf68184610b34565b905092915050565b60006020820190508181036000830152610d188184610be2565b905092915050565b60006040820190508181036000830152610d3a8185610be2565b9050610d496020830184610b25565b9392505050565b60006060820190508181036000830152610d6a8186610be2565b9050610d796020830185610b25565b8181036040830152610d8b8184610be2565b9050949350505050565b60006080820190508181036000830152610daf8187610be2565b9050610dbe6020830186610b25565b8181036040830152610dd08185610be2565b9050610ddf6060830184610c9d565b95945050505050565b60006040820190508181036000830152610e028185610be2565b9050610e116020830184610c9d565b9392505050565b60006020820190508181036000830152610e3181610c1b565b9050919050565b6000602082019050610e4d6000830184610c9d565b92915050565b6000604082019050610e686000830185610c9d565b8181036020830152610e7a8184610be2565b90509392505050565b6000610e8d610e9e565b9050610e998282611045565b919050565b6000604051905090565b600067ffffffffffffffff821115610ec357610ec26110d4565b5b610ecc82611103565b9050602081019050919050565b6000819050602082019050919050565b600081519050919050565b600081519050919050565b6000602082019050919050565b600082825260208201905092915050565b600082825260208201905092915050565b600082825260208201905092915050565b6000610f4a82610fc7565b9150610f5583610fc7565b9250827fffffffffffffffffffffffffffffffffffffffffffffffffffffffffffffffff03821115610f8a57610f89611076565b5b828201905092915050565b6000610fa082610fa7565b9050919050565b600073ffffffffffffffffffffffffffffffffffffffff82169050919050565b6000819050919050565b82818337600083830152505050565b60005b83811015610ffe578082015181840152602081019050610fe3565b8381111561100d576000848401525b50505050565b6000600282049050600182168061102b57607f821691505b6020821081141561103f5761103e6110a5565b5b50919050565b61104e82611103565b810181811067ffffffffffffffff8211171561106d5761106c6110d4565b5b80604052505050565b7f4e487b7100000000000000000000000000000000000000000000000000000000600052601160045260246000fd5b7f4e487b7100000000000000000000000000000000000000000000000000000000600052602260045260246000fd5b7f4e487b7100000000000000000000000000000000000000000000000000000000600052604160045260246000fd5b6000601f19601f8301169050919050565b7f596f75206e657665722077617665206d652062652074686174206f6f6f2c207560008201527f206e6f2074727920617420616c6c212121000000000000000000000000000000602082015250565b61116c81610f95565b811461117757600080fd5b5056fea26469706673582212201e43c64422c1ce524831e8ae01d922d03e2a5f758ea3bca1f6fb17e026aa301864736f6c634300080400334d79206765657a2c20796f7572206765652069732072756e6e696e6720736f6d6520736d617274207374756666732068657265212121",
  "linkReferences": {},
  "deployedLinkReferences": {}
}